:1000000007C1000033C1000031C100002FC1000052
:100010002DC100002BC1000029C1000027C1000034
:1000200025C1000023C1000021C100001FC1000044
:100030001DC100001BC1000019C1000017C1000054
:1000400015C1000013C1000011C100000FC1000064
:100050000DC100000BC1000009C10000FEC400007A
:1000600005C10000D1C40000A6C40000FFC000000C
:10007000FDC00000FBC00000F9C00000F7C0000098
:10008000F5C00000F3C00000F1C00000EFC00000A8
:1000900069C400003EC40000E9C00000E7C00000E1
:1000A000E5C00000E3C00000E1C00000DFC00000C8
:1000B000DDC00000DBC00000D9C00000D7C00000D8
:1000C000D5C00000D3C00000D1C00000CFC00000E8
:1000D000CDC00000CBC00000C9C00000C7C00000F8
:1000E000C5C00000FD020003EF02F302F702370370
:1000F000040308030E03120316031C032003240346
:1001000037032A032E03320300000A0B02090C0DE9
:100110000E080703040100000000000000000000BA
:1001200000000000000000000000000000000000CF
:10013000000000001211100000000000000000008C
:1001400000000000000000000000000000000000AF
:100150002200250028002B002E003100340002016F
:100160000000050108010B01000021002400270008
:100170002A002D00300033000101000004010701B6
:100180000A0105050505070508080808020202021C
:100190000A0A080804040404010101010101010123
:1001A0000303030303030303040707070C0C0C0CEE
:1001B0000C0C0C0C020202020606060606060606D7
:1001C0000B0B0B0B0B0B0B0B010210202008081064
:1001D00020401020408002010201080402010102B7
:1001E0000408102040808040201008040201800490
:1001F00002018040201008040201080402010102EB
:100200000408102040800102040810204080770577
:1002100011241FBECFEFD1E2DEBFCDBF00E00CBF87
:1002200026E0A2E3B2E001C01D92AA31B207E1F7D5
:1002300012E0A0E0B2E0ECE7F0E100E00BBF02C0AA
:1002400007900D92A233B107D9F711E0C8E0D1E0D1
:1002500000E005C021970109802FFE0101D7C730BA
:10026000D10780E00807B1F7A7D406C7C9CEFC01C3
:10027000A089B18982E08C93A485B5851C92A6855E
:10028000B78580E18C93108EA489B58986E08C9324
:10029000A289B3898C9180618C93A289B3898C9156
:1002A00088608C93A289B3898C9180688C93028832
:1002B000F389E02D80818F7D8083089590E0FC019B
:1002C000E853FE4F2491FC01EE57FE4F84918823A2
:1002D00099F090E0880F991FFC01E859FE4FA59115
:1002E000B491FC01E25BFE4F859194918FB7F89435
:1002F000EC91E22BEC938FBF0895CF92DF92EF92B7
:10030000FF920F931F93CF93DF936C017A018B01C0
:10031000C0E0D0E0CE15DF0589F0D8016D918D01E8
:10032000D601ED91FC910190F081E02DC601199567
:10033000892B11F47E0102C02196ECCFC701DF9119
:10034000CF911F910F91FF90EF90DF90CF90089584
:10035000FC01A089B1898C91A689B78982FD0FC063
:100360009C91818D8F5F8F73228D821749F0218D33
:10037000DF01A20FB11D5D969C93818F08958C9132
:100380000895089580E090E00895FC01538D448D18
:10039000252F30E0842F90E0821B930B541710F030
:1003A000CF96089501970895FC01918D828D98173D
:1003B00061F0828DDF01A80FB11D5D968C91928D49
:1003C0009F5F9F73928F90E008958FEF9FEF089546
:1003D000FC01918D828D981731F0828DE80FF11D0F
:1003E000858D90E008958FEF9FEF0895FC01918D2A
:1003F000228D892F90E0805C9F4F821B91098F7323
:10040000992708958AE994E0F1DF21E0892B09F426
:1004100020E0822F089587E395E0E8DF21E0892B33
:1004200009F420E0822F0895FC01848DDF01A80FDC
:10043000B11DA35ABF4F2C91848D90E001968F730C
:100440009927848FA689B7892C93A089B1898C912B
:1004500080648C93938D848D981306C00288F389F1
:10046000E02D80818F7D80830895EF92FF920F931E
:100470001F93CF93DF93EC0181E0888F9B8D8C8D50
:10048000981305C0E889F989808185FD23C0F62E7F
:100490000B8D10E00F5F1F4F0F731127E02E8C8D17
:1004A000E8120BC00FB607FCFACFE889F989808102
:1004B00085FFF5CFCE01B8DFF2CF8B8DFE01E80FBF
:1004C000F11DE35AFF4FF0820B8FEA89FB8980818F
:1004D000806207C0EE89FF896083E889F98980819D
:1004E0008064808381E090E0DF91CF911F910F9134
:1004F000FF90EF900895CF93DF93EC01888D8823D0
:10050000C1F0EA89FB89808185FD05C0A889B98988
:100510008C9186FD0EC00FB607FCF5CF808185FF5C
:10052000F2CFA889B9898C9185FFEDCFCE017CDF10
:10053000E8CFDF91CF91089580E090E0892B19F00A
:100540006ADF811120C080E090E0892B19F05ADF2A
:1005500081111CC080E090E0892B41F080E090E0A8
:10056000892B21F00E940000811113C080E090E0EF
:10057000892BA1F080E090E0892B81F00E9400009F
:1005800081110AC008950E940000DDCF0E94000082
:10059000E1CF0E940000EACF0C9400000895362FAE
:1005A00090E0FC01E85FFE4F4491FC01E853FE4FF0
:1005B0002491FC01EE57FE4F9491992309F46AC0EF
:1005C000442309F454C050E0FA013197E231F105B7
:1005D00008F04DC08827EE58FF4F8F4F41C58091DE
:1005E00080008F7707C0809180008F7D03C080914D
:1005F0008000877F809380003AC084B58F7702C0E7
:1006000084B58F7D84BD33C08091B0008F7703C0E7
:100610008091B0008F7D8093B00029C080919000C0
:100620008F7707C0809190008F7D03C080919000EC
:10063000877F809390001BC08091A0008F7707C0B8
:100640008091A0008F7D03C08091A000877F809360
:10065000A0000DC0809120018F7707C080912001FC
:100660008F7D03C080912001877F80932001E92F37
:10067000F0E0EE0FFF1FE25BFE4FA591B4918FB744
:10068000F894EC91311103C020952E2301C02E2B3C
:100690002C938FBF08953FB7F894809137029091C3
:1006A0003802A0913902B0913A0226B5A89B05C044
:1006B0002F3F19F00196A11DB11D3FBFBA2FA92FE1
:1006C000982F8827820F911DA11DB11DBC01CD015E
:1006D00042E0660F771F881F991F4A95D1F708954A
:1006E0008F929F92AF92BF92CF92DF92EF92FF9242
:1006F0006B017C01D0DF4B015C01C114D104E1042A
:10070000F104E9F0C8DFDC01CB0188199909AA09D5
:10071000BB09883E9340A105B10578F321E0C21AD8
:10072000D108E108F10888EE880E83E0981EA11C2C
:10073000B11CC114D104E104F10421F7DECFFF9014
:10074000EF90DF90CF90BF90AF909F908F900895E3
:100750002FB7F89460913302709134028091350282
:10076000909136022FBF08958F929F92AF92BF92C1
:10077000EF92FF920F931F93CF93DF937C0102E4DC
:1007800012E0C0E0D0E0CE15DF05B9F1E1DF609303
:100790003F05709340058093410590934205E09199
:1007A0003705F09138050284F385E02D87E395E065
:1007B000199597FF1DC0CCDF80903F0590904005B4
:1007C000A0904105B0904205DC01CB018819990940
:1007D000AA09BB0980903B0590903C05A0903D057F
:1007E000B0903E0588159905AA05BB05C0F205C065
:1007F000F80181938F012196C6CFCE01DF91CF9171
:100800001F910F91FF90EF90BF90AF909F908F90AE
:100810000895FC0120812EBDDC0131969C01260F3C
:10082000371FE217F30741F051910DB407FEFDCFDA
:100830004EB55EBD4D93F5CF61507109FC01E60FD9
:10084000F71F0DB407FEFDCF8EB580830895089580
:100850008EBD00000DB407FEFDCF8EB508958CBD92
:100860009DBD089505D46115710579F0FB010190D6
:100870000020E9F73197AF01461B570BDC01ED91E2
:10088000FC910280F381E02D199480E090E00895BE
:100890008F929F92AF92BF920F931F93CF93DF934C
:1008A000CDB7DEB7A1970FB6F894DEBF0FBECDBFB0
:1008B00019A2423008F44AE08E010F5D1F4F842ECA
:1008C000912CA12CB12CA5019401A8D3E62FB9013C
:1008D000CA0101501109EA3014F4E05D01C0E95C7D
:1008E000D801EC93232B242B252B69F7B8018AE937
:1008F00094E0B9DFA1960FB6F894DEBF0FBECDBF6E
:10090000DF91CF911F910F91BF90AF909F908F90EB
:1009100008951F920F920FB60F9211240BB60F92EB
:100920002F933F934F935F936F937F938F939F93F7
:10093000AF93BF93EF93FF938AE994E075DDFF9146
:10094000EF91BF91AF919F918F917F916F915F9147
:100950004F913F912F910F900BBE0F900FBE0F90B4
:100960001F9018951F920F920FB60F9211240BB67D
:100970000F922F933F934F935F936F937F938F9338
:100980009F93AF93BF93EF93FF938AE994E0E0DCEA
:10099000FF91EF91BF91AF919F918F917F916F9157
:1009A0005F914F913F912F910F900BBE0F900FBE13
:1009B0000F901F9018951F920F920FB60F9211244F
:1009C0000BB60F922F933F934F935F936F937F9349
:1009D0008F939F93AF93BF93EF93FF9387E395E03C
:1009E00023DDFF91EF91BF91AF919F918F917F9107
:1009F0006F915F914F913F912F910F900BBE0F9090
:100A00000FBE0F901F9018951F920F920FB60F9266
:100A100011240BB60F922F933F934F935F936F93D5
:100A20007F938F939F93AF93BF93EF93FF9387E34E
:100A300095E08EDCFF91EF91BF91AF919F918F91E7
:100A40007F916F915F914F913F912F910F900BBECE
:100A50000F900FBE0F901F9018951F920F920FB618
:100A60000F9211242F933F938F939F93AF93BF9334
:100A70008091330290913402A0913502B0913602F8
:100A80003091320223E0230F2D3720F40196A11D6F
:100A9000B11D05C026E8230F0296A11DB11D2093AC
:100AA00032028093330290933402A0933502B093C4
:100AB00036028091370290913802A0913902B091AC
:100AC0003A020196A11DB11D80933702909338021E
:100AD000A0933902B0933A02BF91AF919F918F9149
:100AE0003F912F910F900FBE0F901F901895EAE93C
:100AF000F4E01382128248EE53E060E070E0448339
:100B000055836683778384E092E0918380832DEC24
:100B100030E0358724872CEC30E03787268728ECB7
:100B200030E0318B208B29EC30E0338B228B2AECA8
:100B300030E0358B248B2EEC30E0378B268B118EFA
:100B4000128E138E148EE7E3F5E013821282448333
:100B50005583668377839183808385EC90E09587C6
:100B6000848784EC90E09787868780EC90E0918B77
:100B7000808B81EC90E0938B828B82EC90E0958B64
:100B8000848B86EC90E0978B868B118E128E138E61
:100B9000148EE4EDF5E01682178210861186128617
:100BA00013861486158616861786108A118A128A6D
:100BB000138A148A158A0895789484B5826084BD56
:100BC00084B5816084BD85B5826085BD85B5816051
:100BD00085BD80916E00816080936E0010928100CF
:100BE000809181008260809381008091810081608A
:100BF000809381008091800081608093800080914B
:100C0000B10084608093B1008091B00081608093D6
:100C1000B00080919100826080939100809191005A
:100C2000816080939100809190008160809390001A
:100C30008091A10082608093A1008091A1008160D9
:100C40008093A1008091A00081608093A00080919A
:100C50002101826080932101809121018160809334
:100C600021018091200181608093200180917A0090
:100C7000846080937A0080917A00826080937A0009
:100C800080917A00816080937A0080917A008068F8
:100C900080937A001092C1001092160610921706E7
:100CA00010921806109219061092D6051092D705C8
:100CB0001092D8051092D9054BDD6B017C014B01D8
:100CC0005C0148EB840E4BE0941EA11CB11C40DD7E
:100CD0006C157D058E059F0528F086169706A806DB
:100CE000B906A8F768EE73E080E090E0F9DC87E3EE
:100CF00095E0BDDA62E172E087E395E0B4DD28DDDE
:100D00006B017C014B015C018AE0880E911CA11CE7
:100D1000B11C1EDD6C157D058E059F0528F086161D
:100D20009706A806B906A8F785E3C8DA81E3C6DA0C
:100D300080E3C4DA8FE2C2DA61E085E330DC61E0AF
:100D400081E32DDC61E080E32ADC61E08FE227DCD7
:100D5000CFB7F89480913B02811120C0E7EBF1E01E
:100D60008491EDEFF1E09491E82FF0E0EE0FFF1F9A
:100D7000E859FE4FA591B491EC91E92319F461E093
:100D800085E30DDC85E39ADA8CB580618CBD8CB58A
:100D900080648CBD84E392DA83E390DA80913B0235
:100DA0008F5F80933B02CFBF8CB58C7F81608CBD01
:100DB0008DB58E7F8DBD87E395E059DA8AE994E0A1
:100DC00056DA08E512E087E395E010DBEC01892BA9
:100DD00009F422C180914002909141029C012C0FA4
:100DE0003D1F283532408CF5CE01BEDCBE016C5D66
:100DF0007D4F8AE994E037DD61E272E08AE994E0B0
:100E000032DDE12CF12C8091400290914102EC16F0
:100E1000FD06A4F48E5B9D4FFC01EE0DFF1D60816D
:100E200070E080E090E04AE033DD61E272E08AE960
:100E300094E019DD8FEFE81AF80AE5CFC80FD91F43
:100E4000D0934102C0934002E7C07801E81AF90A42
:100E5000C7018ADCB7016C5D7D4F8AE994E003DD50
:100E600061E272E08AE994E0FEDCC0E0D0E0CE15F9
:100E7000DF05ACF4E0914002F0914102EE5BFD4FE2
:100E8000EC0FFD1F608170E080E090E04AE000DD43
:100E900061E272E08AE994E0E6DC2196E8CF109204
:100EA00041021092400280E591E0D9DC60E085E3E8
:100EB00076DB61E081E373DB61E080E370DB61E0BE
:100EC0008FE26DDB68E770E082E492E0A2DC61E033
:100ED00085E365DB80E591E0C2DC61E085E35FDB13
:100EE00060E081E35CDB61E080E359DB61E08FE29D
:100EF00056DB68E770E08AEB92E08BDC61E081E32F
:100F00004EDB80E591E0ABDC61E085E348DB61E04E
:100F100081E345DB60E080E342DB61E08FE23FDBC1
:100F200064EB70E082E393E074DC61E080E337DB44
:100F300080E591E094DC61E085E331DB61E081E311
:100F40002EDB61E080E32BDB60E08FE228DB64EBEB
:100F500070E086EE93E05DDC61E08FE220DB1092D2
:100F60003F0210923E0210923D0210923C0280E538
:100F700091E075DC60E085E312DB61E081E30FDB8B
:100F800061E080E30CDB61E08FE209DB80E060DCA4
:100F900061E085E304DB80E591E061DC61E085E30D
:100FA000FEDA60E081E3FBDA61E080E3F8DA61E039
:100FB0008FE2F5DA80E04CDC61E081E3F0DA80E595
:100FC00091E04DDC61E085E3EADA61E081E3E7DAB4
:100FD00060E080E3E4DA61E08FE2E1DA80E038DCCF
:100FE00061E080E3DCDA80E591E039DC61E085E313
:100FF000D6DA61E081E3D3DA61E080E3D0DA60E061
:101000008FE2CDDA80E024DC61E08FE2C8DA6AE0CA
:1010100070E080E090E064DB8FDAD5CEA1E21A2E9A
:10102000AA1BBB1BFD010DC0AA1FBB1FEE1FFF1F8C
:10103000A217B307E407F50720F0A21BB30BE40BDC
:10104000F50B661F771F881F991F1A9469F7609523
:101050007095809590959B01AC01BD01CF010895DD
:10106000EE0FFF1F881F8BBF0790F691E02D19949C
:0C10700081E090E0F89400C0F894FFCFFD
:10107C000000000035027D01C5017B02F601D401A0
:10108C00E801564D4450565F317C305F564D44500C
:10109C00560D0A0020726561642062797465733A9A
:0210AC00000042
:00000001FF
