:100000000C9463000C948B000C948B000C942E04C5
:100010000C942E040C942E040C948B000C948B00E6
:100020000C948B000C948B000C948B000C948B0024
:100030000C948B000C948B000C948B000C948B0014
:100040000C94E4030C94A8040C94B2030C948C0359
:100050000C948B000C948B000C948B000C948B00F4
:100060000C948B000C948B0000000008000201002F
:100070000003040700000000000000000000000072
:10008000240027002A0000000000250028002B0083
:1000900000000000230026002900040404040404D6
:1000A0000404020202020202030303030303010227
:1000B00004081020408001020408102001020408F6
:1000C0001020EB041C0811241FBECFEFD8E0DEBFC8
:1000D000CDBF22E0AAE4B1E001C01D92A03CB2076E
:1000E000E1F711E0A0E0B1E0EAE7F3E102C005903A
:1000F0000D92AA34B107D9F710E0C2E6D0E004C0EF
:100100002197FE010E947808C136D107C9F70E94E5
:10011000DB050C94B0090C940000CF92DF92EF92B3
:10012000FF920F931F932FB7F894C090AB01D0901C
:10013000AC01E090AD01F090AE012FBFDC01CB012E
:100140008C0D9D1DAE1DBF1D4FB7F8940091AB01E6
:100150001091AC012091AD013091AE014FBF0C1553
:100160001D052E053F0528F080179107A207B3074C
:1001700058F71F910F91FF90EF90DF90CF90089567
:10018000CF92DF92EF92FF920F931F93CF93DF9363
:100190006C017A018B01C0E0D0E0CE15DF0589F05B
:1001A000D8016D918D01D601ED91FC910190F08106
:1001B000E02DC6010995892B11F47E0102C021961C
:1001C000ECCFC701DF91CF911F910F91FF90EF907E
:1001D000DF90CF900895FC01538D448D252F30E0A2
:1001E000842F90E0821B930B541710F0CF96089544
:1001F00001970895FC01918D828D981761F0828D91
:10020000DF01A80FB11D5D968C91928D9F5F9F734A
:10021000928F90E008958FEF9FEF0895FC01918DEC
:10022000828D981731F0828DE80FF11D858D90E059
:1002300008958FEF9FEF0895FC01918D228D892FF6
:1002400090E0805C9F4F821B91098F7399270895DE
:100250008FEA91E00E941C0121E0892B09F420E043
:10026000822F0895FC01848DDF01A80FB11DA35AD0
:10027000BF4F2C91848D90E001968F739927848FC6
:10028000A689B7892C93A089B1898C9180648C93BD
:10029000938D848D981306C00288F389E02D8081A8
:1002A0008F7D80830895EF92FF920F931F93CF93DA
:1002B000DF93EC0181E0888F9B8D8C8D981305C0B6
:1002C000E889F989808185FD24C0F62E0B8D10E028
:1002D0000F5F1F4F0F731127E02E8C8DE8120CC09B
:1002E0000FB607FCFACFE889F989808185FFF5CF41
:1002F000CE010E943201F1CF8B8DFE01E80FF11D7E
:10030000E35AFF4FF0820B8FEA89FB89808180627C
:1003100007C0EE89FF896083E889F989808180645C
:10032000808381E090E0DF91CF911F910F91FF904A
:10033000EF900895CF93DF93EC01888D8823C9F067
:10034000EA89FB89808185FD05C0A889B9898C91DE
:1003500086FD0FC00FB607FCF5CF808185FFF2CF79
:10036000A889B9898C9185FFEDCFCE010E94320119
:10037000E7CFDF91CF91089580E090E0892B29F0BD
:100380000E94280181110C940000089590E0FC0166
:10039000E859FF4F3491FC01E255FF4F2491FC01D5
:1003A000E656FF4FE491EE2309F43BC0332339F1C5
:1003B000333091F038F43130A9F0323001F584B5A2
:1003C0008F7D12C0373091F03830A1F03430B9F45D
:1003D000809180008F7D03C0809180008F77809313
:1003E00080000DC084B58F7784BD09C08091B000B6
:1003F0008F7703C08091B0008F7D8093B000F0E0D4
:10040000EE0FFF1FEA57FF4FA591B4918FB7F894F5
:10041000EC91611103C020952E2301C02E2B2C934B
:100420008FBF0895CF93DF9390E0FC01E255FF4F1B
:100430002491FC01E656FF4F8491882361F190E0FE
:10044000880F991FFC01E458FF4FC591D491FC011E
:10045000EA57FF4FA591B491611109C09FB7F89475
:100460008881209582238883EC912E230BC06230F3
:1004700061F49FB7F8943881822F80958323888315
:10048000EC912E2B2C939FBF06C08FB7F894E88178
:100490002E2B28838FBFDF91CF9108953FB7F8941B
:1004A00080918B0190918C01A0918D01B0918E0172
:1004B00026B5A89B05C02F3F19F00196A11DB11DBF
:1004C0003FBFBA2FA92F982F8827820F911DA11DFA
:1004D000B11DBC01CD0142E0660F771F881F991F37
:1004E0004A95D1F7089520919101309192012817F2
:1004F000390771F490918F0180919001981741F024
:10050000E0918F01F0E0E65BFE4F808190E008957E
:100510008FEF9FEF089508951F93CF93DF93DC0132
:100520005C962D913C915D972115310539F481E060
:1005300090E013969C938E9312973DC05196ED9147
:10054000FC91529750969C915097892F80951FB798
:100550005E964C915E9741FB772770F941FD60955F
:10056000F8944081772311F0492B01C04823408340
:10057000E9012197F1F748E0508160FF02C0592B53
:1005800001C058235083E9012197F1F76695415046
:1005900099F7772321F090818923808303C080819C
:1005A000982B90831FBF5C968D919C915D970197CE
:1005B000F1F721E030E0C901DF91CF911F9108955B
:1005C00020919101309192012817390771F480919F
:1005D000900120918F0190E0805C9F4F821B9109D8
:1005E00060E470E00E945008089580E090E0089573
:1005F000209191013091920128173907B9F4909117
:100600008F0180919001981789F0E0918F01F0E0BF
:10061000E65BFE4F808120918F0130E02F5F3F4FDE
:100620002F73332720938F0190E008958FEF9FEF72
:100630000895E0919101F0919201E817F90769F4AA
:10064000A389B4899C918589809589238C93109284
:1006500092011092910181E0089580E0089508953B
:1006600080E090E00895009769F0FC01019000207F
:10067000E9F73197AF01481B590BBC018FEA91E0B4
:100680000C94C00080E090E00895CF92DF92EF924A
:10069000FF920F931F93CF93DF93CDB7DEB7A19750
:1006A0000FB6F894DEBF0FBECDBF282F30E040E07C
:1006B00050E019A28E010F5D1F4F8AE0C82ED12C89
:1006C000E12CF12CCA01B901A70196010E942E0864
:1006D000605DF80162938F012115310541055105D7
:1006E00089F7CF010E9433038C0189E391E00E94D6
:1006F0003303800F911FA1960FB6F894DEBF0FBE93
:10070000CDBFDF91CF911F910F91FF90EF90DF90C0
:10071000CF9008950E94AB091F920F920FB60F92CF
:1007200011242F933F934F935F936F937F938F93F6
:100730009F93AF93BF93EF93FF938FEA91E00E9453
:100740003201FF91EF91BF91AF919F918F917F9176
:100750006F915F914F913F912F910F900FBE0F902E
:100760001F9018951F920F920FB60F9211242F937E
:100770008F939F93EF93FF93E091BF01F091C0019E
:100780008081E091C501F091C60182FD12C0908187
:100790008091C8018F5F8F732091C901821751F03A
:1007A000E091C801F0E0E155FE4F958F8093C801BC
:1007B00001C08081FF91EF919F918F912F910F90B8
:1007C0000FBE0F901F9018951F920F920FB60F92A9
:1007D00011242F933F938F939F93AF93BF93809157
:1007E000AB019091AC01A091AD01B091AE013091FF
:1007F0008A0123E0230F2D3720F40196A11DB11D9E
:1008000005C026E8230F0296A11DB11D20938A0181
:100810008093AB019093AC01A093AD01B093AE0176
:1008200080918B0190918C01A0918D01B0918E01EE
:100830000196A11DB11D80938B0190938C01A09313
:100840008D01B0938E01BF91AF919F918F913F9198
:100850002F910F900FBE0F901F9018951F920F921F
:100860000FB60F9211242F933F934F935F936F9383
:100870007F938F939F93AF93BF93EF93FF93E091F9
:100880009101F0919201309709F451C0968DA6859F
:10089000B785858591FF04C09C91892329F447C0C1
:1008A0009C91892309F043C0A389B4899C918589CF
:1008B000809589238C93868997890197F1F7608DBC
:1008C000718DA685B785558538E020E0CB0101976D
:1008D000F1F7822F90E095958795282F4C9145232D
:1008E00009F02068315091F7868D81FD2095809127
:1008F000900190E001968F73992730918F013817FE
:1009000049F0A0919001B0E0A65BBE4F2C9380937C
:10091000900103C0868D8160868F828D938D0197B3
:10092000F1F7A389B4899C918589892B8C93FF91D8
:10093000EF91BF91AF919F918F917F916F915F9157
:100940004F913F912F910F900FBE0F901F901895D0
:100950001F920F920FB60F9211242F933F934F9334
:100960005F936F937F938F939F93AF93BF93CF9337
:10097000EF93FF93CEB58C2F0E9445038091940195
:10098000853150F4E091940181E08E0F80939401C1
:10099000F0E0EB56FE4FC083CF3F59F481E08093E7
:1009A000AA018CE391E00E94330389E391E00E9465
:1009B0003303FF91EF91CF91BF91AF919F918F91B1
:1009C0007F916F915F914F913F912F910F900FBE4B
:1009D0000F901F9018951092B2011092B10188EEFD
:1009E00093E0A0E0B0E08093B3019093B401A093B2
:1009F000B501B093B6012AE031E03093B001209305
:100A0000AF0125EC30E03093BC012093BB0124EC16
:100A100030E03093BE012093BD0120EC30E03093F4
:100A2000C0012093BF0121EC30E03093C20120933C
:100A3000C10122EC30E03093C4012093C30126ECC5
:100A400030E03093C6012093C5011092C801109286
:100A5000C9011092CA011092CB0110925202109259
:100A600053021092540210925502109256021092A4
:100A70005702109258021092590210925A02109284
:100A80005B0210925C0210925D0210925E02109264
:100A90005F0210926002109261021092A002109206
:100AA0009F028093A1029093A202A093A302B0930D
:100AB000A4028CE191E090939E0280939D0210929B
:100AC000B4021092B3021092B6021092B5021092C4
:100AD000B8021092B7021092BA021092B902609155
:100AE000BB026E7F6D7F6093BB026695617081E093
:100AF000682786E00E94C60161E086E00E9412023B
:100B0000E4EBF0E0E491E093AD02E0EAF0E0E491A0
:100B1000F0E0EE0FFF1FEA57FF4F859194919093FD
:100B2000AF028093AE0260E08FEF0E9412028091CC
:100B3000BB0281FD04C061E08FEF0E94C6018FEF10
:100B40008093A902EDEAF1E0E491E093AA02E9E9D9
:100B5000F1E0E491F0E0EE0FFF1FE057FF4F8591C9
:100B600094919093AC028093AB0287E090E09093D5
:100B70009302809392021092940210929702109224
:100B800098021092990210929A028DE992E0909345
:100B90009C0280939B0285E190E00E947E089093E6
:100BA000960280939502009729F025E1FC011192AD
:100BB0002A95E9F70895789484B5826084BD84B558
:100BC000816084BD85B5826085BD85B5816085BD48
:100BD00080916E00816080936E0010928100809100
:100BE0008100826080938100809181008160809388
:100BF0008100809180008160809380008091B100AD
:100C000084608093B1008091B00081608093B000D7
:100C100080917A00846080937A0080917A0082606B
:100C200080937A0080917A00816080937A0080912D
:100C30007A00806880937A001092C10010928E0230
:100C400010928F02109290021092910210924E0216
:100C500010924F02109250021092510268EB7BE00A
:100C600080E090E00E948D000E944E024B015C01EA
:100C700058EEC52E53E0D52EE12CF12C0E944E02E9
:100C8000DC01CB0188199909AA09BB09883E934068
:100C9000A105B10558F021E0C21AD108E108F10818
:100CA00088EE880E83E0981EA11CB11CC114D104EB
:100CB000E104F10419F7E091BF01F091C00182E075
:100CC0008083E091BB01F091BC011082E091BD01F5
:100CD000F091BE0180E180831092C701E091C301D1
:100CE000F091C40186E08083E091C101F091C201DE
:100CF000808180618083E091C101F091C201808197
:100D000088608083E091C101F091C2018081806898
:100D10008083E091C101F091C20180818F7D808349
:100D20008AE291E00E9433036AE070E080E090E0A4
:100D30000E948D001092B8021092B7021092B60273
:100D40001092B5021092B4021092B3028FE190E0BB
:100D50009093BA028093B9029091A902963108F05B
:100D600057C021E030E03093B4022093B3022DE16C
:100D700030E03093B6022093B5022DE030E030939E
:100D8000B8022093B70220916800983050F031E00B
:100D90009E3008F430E081E001C0880F3A95EAF710
:100DA00001C084E0822B80936800983038F09E3038
:100DB00040F0963148F020E030E008C02DE630E009
:100DC00005C02BE630E002C02CE630E03093B102E3
:100DD0002093B002983030F481E001C0880F9A95DA
:100DE000EAF70EC0292F30E09E3018F42850310960
:100DF00002C02E50310981E001C0880F2A95EAF720
:100E00008093B2028091B9029091BA020197F1F7F2
:100E10008091B7029091B802892B21F180919101C4
:100E200090919201A2E08D399A07E1F0009711F0BC
:100E30000E9419038091BB028E7F8093BB021092A7
:100E4000900110928F018DE992E09093920180932E
:100E50009101E091B002F091B10290818091B202D3
:100E6000892B8083CFB7F89480919301811127C09B
:100E7000E4EAF0E08491E8EBF0E09491E82FF0E010
:100E8000EE0FFF1FE458FF4FA591B491EC91E923B9
:100E900021F461E08AE00E94C60161E08AE00E94DC
:100EA00012028CB580618CBD8CB580648CBD61E014
:100EB0008DE00E94120261E08BE00E94120280919C
:100EC00093018F5F80939301CFBF60E08AE00E941F
:100ED000120261E08CE00E9412028CB580648CBD2D
:100EE000109294011092AA018CB58F7E8CBD8CB5A6
:100EF00080688CBD61E086E00E94120230E5D32E4E
:100F0000CC24C3948091AA01882309F492C0DCBC4C
:100F1000CDBCE12CF12C00E010E0E701CB56DE4F18
:100F20009A812981888140919202509193020417FD
:100F3000150748F4E0919502F0919602EE0DFF1D21
:100F40008083218392830E94450389810E94450307
:100F50008A810E9445030F5F1F4FB3E0EB0EF11C27
:100F600007301105D1F68091950290919602892B58
:100F700009F45BC08091920290919302EC01CC0F36
:100F8000DD1FC80FD91F0E944E02009197021091D9
:100F900098022091990230919A02DC01CB01801BCA
:100FA000910BA20BB30B893E9340A105B10558F3F9
:100FB000F0909402F11011C080919B0290919C02DC
:100FC000DC01ED91FC916091950270919602028096
:100FD000F381E02DAE0109951EC000E010E00C1772
:100FE0001D07C9F080919B0290919C02E0919502AF
:100FF000F0919602E00FF11F2081DC01ED91FC9150
:101000002F9D900111240190F081E02D632F09950F
:101010000F5F1F4FE4CF0E944E02609397027093C0
:1010200098028093990290939A02109294011092E0
:10103000AA010E94BC0166CF809195029091960210
:10104000009711F00E9413098CE191E090939E02A9
:1010500080939D028DE992E00C941903A1E21A2E6F
:10106000AA1BBB1BFD010DC0AA1FBB1FEE1FFF1F4C
:10107000A217B307E407F50720F0A21BB30BE40B9C
:10108000F50B661F771F881F991F1A9469F76095E3
:101090007095809590959B01AC01BD01CF0108959D
:1010A00097FB072E16F4009407D077FD09D00E9415
:1010B000640807FC05D03EF4909581959F4F0895F4
:1010C000709561957F4F0895AA1BBB1B51E107C026
:1010D000AA1FBB1FA617B70710F0A61BB70B881FC8
:1010E000991F5A95A9F780959095BC01CD01089557
:1010F000EE0FFF1F0590F491E02D0994CF93DF933D
:101100008230910510F482E090E0E091BE02F0910F
:10111000BF0220E030E0C0E0D0E0309711F1408124
:10112000518148175907C0F04817590761F4828167
:101130009381209719F09B838A832BC09093BF02E1
:101140008093BE0226C02115310519F042175307BE
:1011500018F49A01BE01DF01EF010280F381E02D56
:10116000DCCF2115310509F1281B390B243031055D
:1011700090F412968D919C9113976115710521F051
:10118000FB019383828304C09093BF028093BE02CD
:10119000FD01329644C0FD01E20FF31F819391934C
:1011A000225031092D933C933AC02091BC023091DA
:1011B000BD02232B41F420910201309103013093B1
:1011C000BD022093BC022091000130910101211544
:1011D000310541F42DB73EB740910401509105010E
:1011E000241B350BE091BC02F091BD02E217F3071E
:1011F000A0F42E1B3F0B2817390778F0AC014E5F87
:101200005F4F2417350748F04E0F5F1F5093BD0204
:101210004093BC028193919302C0E0E0F0E0CF01E3
:10122000DF91CF9108950F931F93CF93DF93009792
:1012300009F48CC0FC013297138212820091BE0225
:101240001091BF020115110581F420813181820FB7
:10125000931F2091BC023091BD022817390779F500
:10126000F093BD02E093BC0271C0D80140E050E0B1
:10127000AE17BF0750F412962D913C911397AD0114
:101280002115310509F1D901F3CF9D01DA0133832D
:10129000228360817181860F971F8217930769F4FB
:1012A000EC0128813981260F371F2E5F3F4F318394
:1012B00020838A819B8193838283452B29F4F09339
:1012C000BF02E093BE0242C01396FC93EE931297C6
:1012D000ED01499159919E01240F351FE217F30743
:1012E00071F480819181840F951F029611969C93D1
:1012F0008E938281938113969C938E931297E0E054
:10130000F0E0D80112968D919C911397009719F0F7
:10131000F8018C01F6CF8D919C9198012E5F3F4F83
:10132000820F931F2091BC023091BD02281739070C
:1013300069F4309729F41092BF021092BE0202C0E5
:10134000138212821093BD020093BC02DF91CF91F1
:101350001F910F91089581E090E0F8940C94B009EA
:1013600010E0C2E6D0E004C0FE010E947808219699
:0A137000C336D107C9F7F894FFCF88
:10137A000000C0028000000000005301C000EB0022
:10138A009A011C01FA000E01000000008C02C00044
:10139A0030038B02E002F8027302564D4450565F46
:1013AA00317C305F564D4450560D0A0073686F7792
:0A13BA0020636F6D6D616E6400002A
:00000001FF
