:1000000015C1000043C1000041C100003FC1000014
:100010003DC100003BC1000039C1000037C10000F4
:1000200035C10000C2C50000C0C50000BEC500004B
:100030002DC100002BC1000029C1000027C1000014
:1000400025C1000023C1000021C100001FC1000024
:100050001DC100001BC1000019C100005CC50000EB
:1000600022C600002FC5000004C500000FC100001B
:100070000DC100000BC1000009C1000007C1000054
:1000800005C1000003C1000001C10000FFC0000065
:10009000C7C400009CC40000F9C00000F7C0000005
:1000A000F5C00000F3C00000F1C00000EFC0000088
:1000B000EDC00000EBC00000E9C00000E7C0000098
:1000C000E5C00000E3C00000E1C00000DFC00000A8
:1000D000DDC00000DBC00000D9C00000D7C00000B8
:1000E000D5C000001E032103100314031803580396
:1000F000250329032F03330337033D03410345033E
:1001000058034B034F03530300000A0B02090C0D65
:100110000E080703040100000000000000000000BA
:1001200000000000000000000000000000000000CF
:10013000000000001211100000000000000000008C
:1001400000000000000000000000000000000000AF
:100150002100240027002A002D0030003300010177
:100160000000040107010A01000022002500280008
:100170002B002E00310034000201000005010801AF
:100180000B01000020002300260029002C002F0076
:100190003200000100000301060109010505050503
:1001A000070508080808020202020A0A08080404EF
:1001B000040401010101010101010303030303031D
:1001C0000303040707070C0C0C0C0C0C0C0C0202AC
:1001D000020206060606060606060B0B0B0B0B0BA9
:1001E0000B0B010210202008081020401020408036
:1001F00002010201080402010102040810204080EB
:100200008040201008040201800402018040201078
:1002100008040201080402010102040810204080C1
:10022000010204081020408098061D0A11241FBEF8
:10023000CFEFD1E2DEBFCDBF00E00CBF24E0AAE4E7
:10024000B2E001C01D92A03CB207E1F712E0A0E0CD
:10025000B2E0E0E8F7E100E00BBF02C007900D92CA
:10026000AA34B107D9F711E0C5E1D1E000E006C03A
:1002700021970109802FFE010E94620AC431D10733
:1002800080E00807A9F77BD60C94AF0BB9CEEFEA54
:10029000F3E0A089B18982E08C93A485B5851C9296
:1002A000A685B7858FEC8C93108EA489B58986E0DE
:1002B0008C93A289B3898C9180618C93A289B38934
:1002C0008C9188608C93A289B3898C9180688C937F
:1002D0000288F389E02D80818F7D80830895CF92FD
:1002E000DF92EF92FF920F931F932FB7F894C09075
:1002F0000E03D0900F03E0901003F09011032FBF76
:10030000DC01CB018C0D9D1DAE1DBF1D4FB7F894B8
:1003100000910E0310910F032091100330911103EF
:100320004FBF0C151D052E053F0528F080179107BE
:10033000A207B30758F71F910F91FF90EF90DF903E
:10034000CF900895CF92DF92EF92FF920F931F9379
:10035000CF93DF936C017A018B01C0E0D0E0CE1522
:10036000DF0589F0D8016D918D01D601ED91FC91E9
:100370000190F081E02DC6011995892B11F47E01C1
:1003800002C02196ECCFC701DF91CF911F910F9151
:10039000FF90EF90DF90CF900895FC01A089B18984
:1003A0008C91A689B78982FD0FC09C91818D8F5F4A
:1003B0008F73228D821749F0218DDF01A20FB11DAD
:1003C0005D969C93818F08958C910895FC01538DC7
:1003D000448D252F30E0842F90E0821B930B54171F
:1003E00010F0CF96089501970895FC01918D828DAC
:1003F000981761F0828DDF01A80FB11D5D968C9179
:10040000928D9F5F9F73928F90E008958FEF9FEF83
:100410000895FC01918D828D981731F0828DE80F3F
:10042000F11D858D90E008958FEF9FEF0895FC01F9
:10043000918D228D892F90E0805C9F4F821B9109C6
:100440008F739927089582E193E0F1DF21E0892BF2
:1004500009F420E0822F08958FEA93E0E8DF21E09D
:10046000892B09F420E0822F0895FC01848DDF019F
:10047000A80FB11DA35ABF4F2C91848D90E0019617
:100480008F739927848FA689B7892C93A089B18906
:100490008C9180648C93938D848D981306C0028810
:1004A000F389E02D80818F7D80830895EF92FF9204
:1004B0000F931F93CF93DF93EC0181E0888F9B8D87
:1004C0008C8D981305C0E889F989808185FD23C04A
:1004D000F62E0B8D10E00F5F1F4F0F731127E02ECC
:1004E0008C8DE8120BC00FB607FCFACFE889F989AA
:1004F000808185FFF5CFCE01B8DFF2CF8B8DFE0175
:10050000E80FF11DE35AFF4FF0820B8FEA89FB8958
:100510008081806207C0EE89FF896083E889F9895C
:1005200080818064808381E090E0DF91CF911F9192
:100530000F91FF90EF900895CF93DF93EC01888D9A
:100540008823C1F0EA89FB89808185FD05C0A889DF
:10055000B9898C9186FD0EC00FB607FCF5CF80815E
:1005600085FFF2CFA889B9898C9185FFEDCFCE01A7
:100570007CDFE8CFDF91CF91089580E090E0892B78
:1005800019F06ADF811120C080E090E0892B19F01A
:100590005ADF81111CC080E090E0892B41F080E09F
:1005A00090E0892B21F00E940000811113C080E0AF
:1005B00090E0892BA1F080E090E0892B81F00E94EF
:1005C000000081110AC008950E940000DDCF0E9442
:1005D0000000E1CF0E940000EACF0C9400000895D3
:1005E000362F90E0FC01E85FFE4F4491FC01EE5194
:1005F000FE4F2491FC01E456FE4F9491992309F497
:100600006AC0442309F454C050E0FA013197E23142
:10061000F10508F04DC08827EE58FF4F8F4F52C7A5
:10062000809180008F7707C0809180008F7D03C00C
:1006300080918000877F809380003AC084B58F7757
:1006400002C084B58F7D84BD33C08091B0008F77A8
:1006500003C08091B0008F7D8093B00029C080914D
:1006600090008F7707C0809190008F7D03C08091AC
:100670009000877F809390001BC08091A0008F77AF
:1006800007C08091A0008F7D03C08091A000877F6C
:100690008093A0000DC0809120018F7707C08091CA
:1006A00020018F7D03C080912001877F80932001EE
:1006B000E92FF0E0EE0FFF1FE859FE4FA591B4912E
:1006C0008FB7F894EC91311103C020952E2301C00F
:1006D0002E2B2C938FBF0895CF93DF9390E0FC01D6
:1006E000EE51FE4F2491FC01E456FE4F8491882385
:1006F00061F190E0880F991FFC01E25BFE4FC5910C
:10070000D491FC01E859FE4FA591B491611109C043
:100710009FB7F8948881209582238883EC912E23BB
:100720000BC0623061F49FB7F8943881822F8095B6
:1007300083238883EC912E2B2C939FBF06C08FB709
:10074000F894E8812E2B28838FBFDF91CF910895F5
:100750003FB7F89480918B0290918C02A0918D020A
:10076000B0918E0226B5A89B05C02F3F19F00196C7
:10077000A11DB11D3FBFBA2FA92F982F8827820F27
:10078000911DA11DB11DBC01CD0142E0660F771F77
:10079000881F991F4A95D1F70895209191023091B1
:1007A00092022817390771F490918F02809190027C
:1007B000981741F0E0918F02F0E0E65BFD4F8081F9
:1007C00090E008958FEF9FEF089508951F93CF93C2
:1007D000DF93DC015C962D913C915D9721153105ED
:1007E00039F481E090E013969C938E9312973DC06C
:1007F0005196ED91FC91529750969C915097892F6C
:1008000080951FB75E964C915E9741FB772770F9F4
:1008100041FD6095F8944081772311F0492B01C088
:1008200048234083E9012197F1F748E0508160FFB8
:1008300002C0592B01C058235083E9012197F1F7D9
:100840006695415099F7772321F090818923808321
:1008500003C08081982B90831FBF5C968D919C91E3
:100860005D970197F1F721E030E0C901DF91CF9169
:100870001F91089520919102309192022817390713
:1008800061F48091900220918F0290E0805C9F4FF4
:10089000821B910960E470E002C680E090E0089558
:1008A000209191023091920228173907B9F4909162
:1008B0008F0280919002981789F0E0918F02F0E00A
:1008C000E65BFD4F808120918F0230E02F5F3F4F2C
:1008D0002F73332720938F0290E008958FEF9FEFBF
:1008E0000895E0919102F0919202E817F90769F4F6
:1008F000A389B4899C918589809589238C931092D2
:1009000092021092910281E0089580E00895089586
:1009100080E090E008956115710579F0FB01019088
:100920000020E9F73197AF01461B570BDC01ED9131
:10093000FC910280F381E02D199480E090E008950D
:10094000CF92DF92EF92FF920F931F93CF93DF939B
:10095000CDB7DEB7A1970FB6F894DEBF0FBECDBFFF
:10096000282F30E040E050E019A28E010F5D1F4FAC
:100970008AE0C82ED12CE12CF12CCA01B901A701C3
:1009800096016BD5605DF80162938F0121153105E9
:100990004105510591F7BF0182E193E0BCDF8C0175
:1009A00069E372E082E193E0B6DF800F911FA196C8
:1009B0000FB6F894DEBF0FBECDBFDF91CF911F9170
:1009C0000F91FF90EF90DF90CF900895C4D61F92C3
:1009D0000F920FB60F9211240BB60F922F933F93E5
:1009E0004F935F936F937F938F939F93AF93BF9337
:1009F000EF93FF9382E193E038DDFF91EF91BF9198
:100A0000AF919F918F917F916F915F914F913F91A6
:100A10002F910F900BBE0F900FBE0F901F90189547
:100A20001F920F920FB60F9211240BB60F922F93B5
:100A30003F934F935F936F937F938F939F93AF9366
:100A4000BF93EF93FF9382E193E0A7DCFF91EF91D7
:100A5000BF91AF919F918F917F916F915F914F91D6
:100A60003F912F910F900BBE0F900FBE0F901F90D4
:100A700018951F920F920FB60F9211240BB60F927A
:100A80002F933F934F935F936F937F938F939F9396
:100A9000AF93BF93EF93FF938FEA93E0E6DCFF9170
:100AA000EF91BF91AF919F918F917F916F915F91E6
:100AB0004F913F912F910F900BBE0F900FBE0F9053
:100AC0001F9018951F920F920FB60F9211240BB61C
:100AD0000F922F933F934F935F936F937F938F93D7
:100AE0009F93AF93BF93EF93FF938FEA93E055DC0F
:100AF000FF91EF91BF91AF919F918F917F916F91F6
:100B00005F914F913F912F910F900BBE0F900FBEB1
:100B10000F901F9018951F920F920FB60F921124ED
:100B20002F933F938F939F93AF93BF9380910E0327
:100B300090910F03A0911003B091110330918A029C
:100B400023E0230F2D3720F40196A11DB11D05C010
:100B500026E8230F0296A11DB11D20938A028093DF
:100B60000E0390930F03A0931003B0931103809191
:100B70008B0290918C02A0918D02B0918E02019611
:100B8000A11DB11D80938B0290938C02A0938D02C6
:100B9000B0938E02BF91AF919F918F913F912F9112
:100BA0000F900FBE0F901F9018951F920F920FB6C7
:100BB0000F9211240BB60F922F933F934F935F9395
:100BC0006F937F938F939F93AF93BF93EF93FF9315
:100BD000E0919102F0919202309709F451C0968D04
:100BE000A685B785858591FF04C09C91892329F44A
:100BF00047C09C91892309F043C0A389B4899C9183
:100C00008589809589238C93868997890197F1F747
:100C1000608D718DA685B785558538E020E0CB01C4
:100C20000197F1F7822F90E095958795282F4C91A9
:100C3000452309F02068315091F7868D81FD20957C
:100C40008091900290E001968F73992730918F02E6
:100C5000381749F0A0919002B0E0A65BBD4F2C93ED
:100C60008093900203C0868D8160868F828D938DE4
:100C70000197F1F7A389B4899C918589892B8C937D
:100C8000FF91EF91BF91AF919F918F917F916F9164
:100C90005F914F913F912F910F900BBE0F900FBE20
:100CA0000F901F9018951F920F920FB60F9211245C
:100CB0000BB60F922F933F934F935F936F937F9356
:100CC0008F939F93AF93BF93EF93FF938EB5811153
:100CD0000EC081E080930D036CE372E082E193E04B
:100CE0001ADE69E372E082E193E015DE0EC09091B6
:100CF0009402983750F4E091940291E09E0F909303
:100D00009402F0E0EB56FD4F8083FF91EF91BF918D
:100D1000AF919F918F917F916F915F914F913F9193
:100D20002F910F900BBE0F900FBE0F901F90189534
:100D3000109215031092140388EE93E0A0E0B0E047
:100D40008093160390931703A0931803B09319038D
:100D50002AE032E030931303209312034DEC50E06D
:100D600050931F0340931E034CEC50E0509321031B
:100D70004093200348EC50E0509323034093220318
:100D800049EC50E050932503409324034AEC50E093
:100D900050932703409326034EEC50E050932903D1
:100DA0004093280310922B0310922C0310922D03D2
:100DB00010922E031092B2031092B1038093B303EA
:100DC0009093B403A093B503B093B6033093B003EC
:100DD0002093AF0325EC30E03093BC032093BB039A
:100DE00024EC30E03093BE032093BD0320EC30E0D0
:100DF0003093C0032093BF0321EC30E03093C20353
:100E00002093C10322EC30E03093C4032093C3034A
:100E100026EC30E03093C6032093C5031092C8033C
:100E20001092C9031092CA031092CB03109252047D
:100E300010925304109254041092550410925604C8
:100E400010925704109258041092590410925A04A8
:100E500010925B0410925C0410925D0410925E0488
:100E600010925F0410926004109261041092A0042A
:100E700010929F048093A1049093A204A093A304D2
:100E8000B093A4048CE192E090939E0480939D041F
:100E90001092B4041092B3041092B6041092B504E8
:100EA0001092B8041092B7041092BA041092B904C8
:100EB0006091BB046E7F6D7F6093BB04669561702B
:100EC00081E0682786E08CDB61E086E005DCE8EE07
:100ED000F1E0E491E093AD04E2EAF1E0E491F0E0C6
:100EE000EE0FFF1FE859FE4F859194919093AF0448
:100EF0008093AE0460E08FEFEFDB8091BB0481FD57
:100F000003C061E08FEF6CDB8FEF8093A904E1EE0B
:100F1000F2E0E491E093AA04EBE9F2E0E491F0E07E
:100F2000EE0FFF1FEE57FE4F859194919093AC0406
:100F30008093AB0488E290E09093930480939204B2
:100F400010929404109297041092980410929904AD
:100F500010929A048DE994E090939C0480939B04F2
:100F600088E790E0CBD29093960480939504009705
:100F700029F028E7FC0111922A95E9F70895789461
:100F800084B5826084BD84B5816084BD85B582608E
:100F900085BD85B5816085BD80916E00816080933F
:100FA0006E001092810080918100826080938100A8
:100FB00080918100816080938100809180008160B8
:100FC000809380008091B10084608093B100809113
:100FD000B00081608093B000809191008260809326
:100FE00091008091910081608093910080919000A8
:100FF0008160809390008091A10082608093A10025
:101000008091A10081608093A1008091A000816007
:101010008093A000809121018260809321018091C2
:101020002101816080932101809120018160809362
:10103000200180917A00846080937A0080917A0008
:10104000826080937A0080917A00816080937A0038
:1010500080917A00806880937A001092C10010928B
:101060008E0410928F0410929004109291041092AA
:101070004E0410924F04109250041092510468EBE9
:101080007BE080E090E02BD963DB4B015C0148EE14
:10109000C42E43E0D42EE12CF12C5ADBDC01CB0131
:1010A00088199909AA09BB09883E9340A105B10591
:1010B00058F021E0C21AD108E108F10888EE880E44
:1010C00083E0981EA11CB11CC114D104E104F104F9
:1010D00021F7DDD86AE272E08FEA93E01CDC6AE077
:1010E00070E080E090E0FBD8D2D81092B804109263
:1010F000B7041092B6041092B5041092B404109282
:10110000B3048FE190E09093BA048093B904809186
:10111000A90496EF980F943048F02EEC280F243055
:1011200028F022EC280F283008F06EC021E030E0D3
:101130003093B4042093B3042DE130E03093B6042F
:101140002093B5042DE030E03093B8042093B70429
:10115000943060F02EEC280F243040F022EC280F61
:10116000283008F462C1A0E0B0E061C1A8E6B0E0B8
:10117000E8E6F0E02081943018F08E53883010F0CB
:1011800081E001C084E0822B8C938091A90496EFCA
:10119000980F943058F02EEC280F243038F022ECC1
:1011A000280F283030F020E030E005C02BE630E09A
:1011B00002C02DE630E03093B1042093B0049430A7
:1011C00010F49AEF0BC0823381F0833381F08433C3
:1011D00081F092EC980F983070F492EC980F81E0C7
:1011E00001C0880F9A95EAF707C088E005C084E03F
:1011F00003C082E001C081E08093B2048091B90411
:101200009091BA040197F1F78091B7049091B804D6
:10121000892B19F18091910290919202F4E08D391D
:101220009F07D9F0009709F05CDB8091BB048E7FAB
:101230008093BB041092900210928F028DE994E08B
:101240009093920280939102E091B004F091B104E6
:1012500090818091B204892B8083CFB7F8948091DC
:101260009302811123C0E1EDF1E08491E7E1F2E026
:101270009491E82FF0E0EE0FFF1FE25BFE4FA59187
:10128000B491EC91E92319F461E085E3A9D961E017
:1012900085E322DA8CB580618CBD8CB580648CBD11
:1012A00061E084E319DA61E083E316DA8091930266
:1012B0008F5F80939302CFBF60E085E30DDA61E03A
:1012C00082E30ADA8CB580648CBD1092940210928D
:1012D0000D038CB58F7E8CBD8CB580688CBD8CB5B4
:1012E0008C7F81608CBD8DB58E7F8DBD61E086E089
:1012F000F3D980910D03882309F495C007E912E022
:10130000C5E9D2E0E12CF12CD8012C91F801329101
:101310006F0148818091920490919304E816F90638
:1013200060F4E0919504F0919604CE0185599240C5
:10133000E80FF91F408331832283888101DBD601C6
:101340008C91FEDAF8018081FBDAFFEFEF1AFF0AD9
:101350000D5F1F4F239628E2E216F104A9F6809153
:10136000950490919604892B09F459C080919204B8
:1013700090919304EC01CC0FDD1FC80FD91FE8D961
:1013800000919704109198042091990430919A0447
:10139000DC01CB01801B910BA20BB30B893E934068
:1013A000A105B10560F3F0909404F11011C0809193
:1013B0009B0490919C04DC01ED91FC91609195045B
:1013C000709196040280F381E02DAE0119951EC044
:1013D00000E010E00C171D07C9F080919B0490916C
:1013E0009C04E0919504F0919604E00FF11F208198
:1013F000DC01ED91FC912F9D900111240190F08171
:10140000E02D632F19950F5F1F4FE4CFA1D9609393
:101410009704709398048093990490939A0410927F
:10142000940210920D03A9D864CFA8E6B0E028304A
:1014300008F49ECEE0E0F0E09DCE8091950490917E
:101440009604009709F0EFD08CE192E090939E040F
:1014500080939D048DE994E044CAA1E21A2EAA1B50
:10146000BB1BFD010DC0AA1FBB1FEE1FFF1FA21754
:10147000B307E407F50720F0A21BB30BE40BF50B51
:10148000661F771F881F991F1A9469F760957095DA
:10149000809590959B01AC01BD01CF01089597FB0C
:1014A000072E16F4009406D077FD08D013D007FC61
:1014B00005D03EF4909581959F4F08957095619564
:1014C0007F4F0895EE0FFF1F881F8BBF0790F69187
:1014D000E02D1994AA1BBB1B51E107C0AA1FBB1F1B
:1014E000A617B70710F0A61BB70B881F991F5A95B0
:1014F000A9F780959095BC01CD010895CF93DF9316
:101500008230910510F482E090E0E091BE04F09109
:10151000BF0420E030E0C0E0D0E0309711F140811E
:10152000518148175907C0F04817590761F4828163
:101530009381209719F09B838A832BC09093BF04DB
:101540008093BE0426C02115310519F042175307B8
:1015500018F49A01BE01DF01EF010280F381E02D52
:10156000DCCF2115310509F1281B390B2430310559
:1015700090F412968D919C9113976115710521F04D
:10158000FB019383828304C09093BF048093BE04C5
:10159000FD01329644C0FD01E20FF31F8193919348
:1015A000225031092D933C933AC02091BC043091D4
:1015B000BD04232B41F420910202309103023093A9
:1015C000BD042093BC04209100023091010221153A
:1015D000310541F42DB73EB7409104025091050208
:1015E000241B350BE091BC04F091BD04E217F30716
:1015F000A0F42E1B3F0B2817390778F0AC014E5F83
:101600005F4F2417350748F04E0F5F1F5093BD04FE
:101610004093BC048193919302C0E0E0F0E0CF01DD
:10162000DF91CF9108950F931F93CF93DF9300978E
:1016300009F48CC0FC013297138212820091BE041F
:101640001091BF040115110581F420813181820FB1
:10165000931F2091BC043091BD042817390779F5F8
:10166000F093BD04E093BC0471C0D80140E050E0A9
:10167000AE17BF0750F412962D913C911397AD0110
:101680002115310509F1D901F3CF9D01DA01338329
:10169000228360817181860F971F8217930769F4F7
:1016A000EC0128813981260F371F2E5F3F4F318390
:1016B00020838A819B8193838283452B29F4F09335
:1016C000BF04E093BE0442C01396FC93EE931297BE
:1016D000ED01499159919E01240F351FE217F3073F
:1016E00071F480819181840F951F029611969C93CD
:1016F0008E938281938113969C938E931297E0E050
:10170000F0E0D80112968D919C911397009719F0F3
:10171000F8018C01F6CF8D919C9198012E5F3F4F7F
:10172000820F931F2091BC043091BD042817390704
:1017300069F4309729F41092BF041092BE0402C0DD
:10174000138212821093BD040093BC04DF91CF91E9
:101750001F910F91089581E090E0F89400C011E08E
:10176000C5E1D1E000E005C0802FFE01ABDE21968F
:10177000011DC631D10780E00807B1F7F894FFCF0B
:101780000000C0048000000000005602A201E60133
:101790009C021702F501090200000000E603A20105
:1017A0008804E5033A045004CD03564D4450565F77
:1017B000317C305F564D4450560D0A0073686F7788
:0A17C00020636F6D6D616E64000020
:00000001FF
