:1000000007C1000035C1000033C1000031C100004C
:100010002FC100002DC100002BC1000029C100002C
:1000200027C1000025C1000023C1000021C100003C
:100030001FC100001DC100001BC1000019C100004C
:1000400017C1000015C1000013C1000011C100005C
:100050000FC100000DC100000BC1000085C40000ED
:1000600007C1000058C400002DC4000001C10000F9
:10007000FFC00000FDC00000FBC00000F9C0000090
:10008000F7C00000F5C00000F3C00000F1C00000A0
:10009000F0C30000C5C30000EBC00000E9C00000D1
:1000A000E7C00000E5C00000E3C00000E1C00000C0
:1000B000DFC00000DDC00000DBC00000D9C00000D0
:1000C000D7C00000D5C00000D3C00000D1C00000E0
:1000D000CFC00000CDC00000CBC00000C9C00000F0
:1000E000C7C000008606890678067C068006C00622
:1000F0008D06910697069B069F06A506A906AD06E6
:10010000C006B306B706BB06000021002400270086
:100110002A002D0030003300010100000401070116
:100120000A0100002200250028002B002E003100CB
:10013000340002010000050108010B010505050559
:10014000070508080808020202020A0A080804044F
:10015000040401010101010101010303030303037D
:100160000303040707070C0C0C0C0C0C0C0C02020C
:10017000020206060606060606060B0B0B0B0B0B09
:100180000B0B010210202008081020401020408096
:10019000020102010804020101020408102040804B
:1001A00080402010080402018004020180402010D9
:1001B0000804020108040201010204081020408022
:1001C000010204081020408000000A0B02090C0DF7
:1001D0000E080703040100000000000000000000FA
:1001E000000000000000000000000000000000000F
:1001F00000000000121110000000000000000000CC
:100200000000000000000000000000000000FE04EC
:1002100011241FBECFEFD1E2DEBFCDBF00E00CBF87
:1002200024E0A6E4B2E001C01D92A936B207E1F7CE
:1002300012E0A0E0B2E0E4E4F3E100E00BBF02C0B2
:1002400007900D92A634B107D9F711E0C8E0D1E0CC
:1002500000E006C021970109802FFE010E9480095D
:10026000C730D10780E00807A9F740D40C94A00953
:10027000C7CEFC01A089B18982E08C93A485B585A5
:100280001C92A685B78580E18C93108EA489B589D0
:1002900086E08C93A289B3898C9180618C93A2892A
:1002A000B3898C9188608C93A289B3898C91806882
:1002B0008C930288F389E02D80818F7D808308955F
:1002C000CF92DF92EF92FF920F931F93CF93DF9322
:1002D0006C017A018B01C0E0D0E0CE15DF0589F01A
:1002E000D8016D918D01D601ED91FC910190F081C5
:1002F000E02DC6011995892B11F47E0102C02196CB
:10030000ECCFC701DF91CF911F910F91FF90EF903C
:10031000DF90CF900895FC01A089B1898C91A689C6
:10032000B78982FD0FC09C91818D8F5F8F73228D65
:10033000821749F0218DDF01A20FB11D5D969C93BC
:10034000818F08958C910895089580E090E008953C
:10035000FC01538D448D252F30E0842F90E0821BCB
:10036000930B541710F0CF96089501970895FC0150
:10037000918D828D981761F0828DDF01A80FB11DDC
:100380005D968C91928D9F5F9F73928F90E0089500
:100390008FEF9FEF0895FC01918D828D981731F0BA
:1003A000828DE80FF11D858D90E008958FEF9FEF0E
:1003B0000895FC01918D228D892F90E0805C9F4FE4
:1003C000821B91098F73992708958DED92E0F1DFDB
:1003D00021E0892B09F420E0822F08958AE793E039
:1003E000E8DF21E0892B09F420E0822F0895FC0149
:1003F000848DDF01A80FB11DA35ABF4F2C91848DAE
:1004000090E001968F739927848FA689B7892C93E2
:10041000A089B1898C9180648C93938D848D98137D
:1004200006C00288F389E02D80818F7D8083089546
:10043000EF92FF920F931F93CF93DF93EC0181E034
:10044000888F9B8D8C8D981305C0E889F9898081F0
:1004500085FD23C0F62E0B8D10E00F5F1F4F0F732D
:100460001127E02E8C8DE8120BC00FB607FCFACFD7
:10047000E889F989808185FFF5CFCE01B8DFF2CF19
:100480008B8DFE01E80FF11DE35AFF4FF0820B8FB9
:10049000EA89FB898081806207C0EE89FF896083D9
:1004A000E889F98980818064808381E090E0DF9130
:1004B000CF911F910F91FF90EF900895CF93DF930D
:1004C000EC01888D8823C1F0EA89FB89808185FD54
:1004D00005C0A889B9898C9186FD0EC00FB607FCAE
:1004E000F5CF808185FFF2CFA889B9898C9185FFEE
:1004F000EDCFCE017CDFE8CFDF91CF91089580E092
:1005000090E0892B19F06ADF811120C080E090E033
:10051000892B19F05ADF81111CC080E090E0892BF3
:1005200041F080E090E0892B21F00E9400008111D1
:1005300013C080E090E0892BA1F080E090E0892B4F
:1005400081F00E94000081110AC008950E940000FD
:10055000DDCF0E940000E1CF0E940000EACF0C94A2
:1005600000000895863308F0865390917B00282F71
:100570002870977F922B90937B0087708064809384
:100580007C0080917A00806480937A0080917A0068
:1005900086FDFCCF809178002091790090E0922B2D
:1005A00008953FB7F89480914B0290914C02A0912E
:1005B0004D02B0914E0226B5A89B05C02F3F19F001
:1005C0000196A11DB11D3FBFBA2FA92F982F8827D3
:1005D000820F911DA11DB11DBC01CD0142E0660F2E
:1005E000771F881F991F4A95D1F708958F929F9280
:1005F000AF92BF92CF92DF92EF92FF926B017C019C
:10060000D0DF4B015C01C114D104E104F104E9F035
:10061000C8DFDC01CB0188199909AA09BB09883E0A
:100620009340A105B10578F321E0C21AD108E10891
:10063000F10888EE880E83E0981EA11CB11CC1143D
:10064000D104E104F10421F7DECFFF90EF90DF90B9
:10065000CF90BF90AF909F908F9008952FB7F89450
:1006600060914702709148028091490290914A023C
:100670002FBF0895009761F0FC0101900020E9F779
:100680003197AF01481B590BBC018AE793E018CEA4
:1006900080E090E008958F929F92AF92BF92CF92A8
:1006A000DF92EF92FF920F931F93CF93DF93CDB71B
:1006B000DEB7A1970FB6F894DEBF0FBECDBF6B01BA
:1006C0007C0197FF2FC0E0917A03F0917B030190AA
:1006D000F081E02D6DE28AE793E019958C012227E5
:1006E0003327A9012C193D094E095F0919A2CE0132
:1006F00081967C019AE0892E912CA12CB12CCA0103
:10070000B901A5019401B2D4605DF70162937F0144
:10071000211531054105510591F7CF01ABDF800F60
:10072000911F1BC09B01AC0119A28E010F5D1F4FD1
:100730008AE0C82ED12CE12CF12CCA01B901A70105
:10074000960194D4605DF80162938F012115310503
:100750004105510591F7CF018DDFA1960FB6F894B1
:10076000DEBF0FBECDBFDF91CF911F910F91FF90E4
:10077000EF90DF90CF90BF90AF909F908F900895B3
:10078000CF93DF93EC016ADF6A837B838C839D8345
:100790008881813091F018F08330E9F036C089818A
:1007A000E1DEBC016B5071098CE198E07AD56F31C4
:1007B00068F5633080F563E02EC08981D3DEBC012B
:1007C0006451710980EC92E16CD5613508F56930AE
:1007D00010F569E020C08981C5DEBC01990F880B46
:1007E000990BB8D329E23CE547E851E461D49B0179
:1007F000AC0160E078ED83E196E4BFD426D567399B
:1008000048F4633140F463E106C006C06FE103C001
:1008100061E501C067E9862FDF91CF9108958CD5FE
:100820001F920F920FB60F9211240BB60F922F93B7
:100830003F934F935F936F937F938F939F93AF9368
:10084000BF93EF93FF938DED92E0D1DDFF91EF9198
:10085000BF91AF919F918F917F916F915F914F91D8
:100860003F912F910F900BBE0F900FBE0F901F90D6
:1008700018951F920F920FB60F9211240BB60F927C
:100880002F933F934F935F936F937F938F939F9398
:10089000AF93BF93EF93FF938DED92E03CDDFF911B
:1008A000EF91BF91AF919F918F917F916F915F91E8
:1008B0004F913F912F910F900BBE0F900FBE0F9055
:1008C0001F9018951F920F920FB60F9211240BB61E
:1008D0000F922F933F934F935F936F937F938F93D9
:1008E0009F93AF93BF93EF93FF938AE793E07FDDEE
:1008F000FF91EF91BF91AF919F918F917F916F91F8
:100900005F914F913F912F910F900BBE0F900FBEB3
:100910000F901F9018951F920F920FB60F921124EF
:100920000BB60F922F933F934F935F936F937F93E9
:100930008F939F93AF93BF93EF93FF938AE793E0D7
:10094000EADCFF91EF91BF91AF919F918F917F91E1
:100950006F915F914F913F912F910F900BBE0F9030
:100960000FBE0F901F9018951F920F920FB60F9207
:1009700011242F933F938F939F93AF93BF938091B5
:10098000470290914802A0914902B0914A023091E9
:10099000460223E0230F2D3720F40196A11DB11D3F
:1009A00005C026E8230F0296A11DB11D2093460223
:1009B0008093470290934802A0934902B0934A0261
:1009C00080914B0290914C02A0914D02B0914E0249
:1009D0000196A11DB11D80934B0290934C02A093F0
:1009E0004D02B0934E02BF91AF919F918F913F9175
:1009F0002F910F900FBE0F901F901895EDEDF2E024
:100A00001382128248EE53E060E070E04483558325
:100A10006683778384E092E0918380832DEC30E0DD
:100A2000358724872CEC30E03787268728EC30E0A8
:100A3000318B208B29EC30E0338B228B2AEC30E099
:100A4000358B248B2EEC30E0378B268B118E128E5B
:100A5000138E148EEAE7F3E01382128244835583E7
:100A6000668377839183808385EC90E09587848784
:100A700084EC90E09787868780EC90E0918B808B68
:100A800081EC90E0938B828B82EC90E0958B848B51
:100A900086EC90E0978B868B118E128E138E148EBF
:100AA000E7E1F4E01682178210861186128613861B
:100AB0001486158616861786108A118A128A138A5A
:100AC000148A158AE3E6F4E083E0808396E3918359
:100AD0001282138214821582EDE5F4E0808387E3AD
:100AE000818312821382148215820895789484B5CA
:100AF000826084BD84B5816084BD85B5826085BD1A
:100B000085B5816085BD80916E00816080936E00A7
:100B10001092810080918100826080938100809199
:100B2000810081608093810080918000816080934A
:100B300080008091B10084608093B1008091B0000A
:100B400081608093B00080919100826080939100D9
:100B500080919100816080939100809190008160EC
:100B6000809390008091A10082608093A100809189
:100B7000A10081608093A1008091A000816080939A
:100B8000A000809121018260809321018091210148
:100B900081608093210180912001816080932001F8
:100BA00080917A00846080937A0080917A008260DC
:100BB00080937A0080917A00816080937A0080919E
:100BC0007A00806880937A001092C10010925904D4
:100BD00010925A0410925B0410925C041092190453
:100BE00010921A0410921B0410921C0437DD6B0142
:100BF0007C014B015C0188EB880E8BE0981EA11CE8
:100C0000B11C2CDD6C157D058E059F0528F0861620
:100C10009706A806B906A8F768EE73E080E090E0B2
:100C2000E5DC8AE793E025DB82E192E023DD16DD57
:100C30006B017C014B015C01EAE08E0E911CA11C52
:100C4000B11C0CDD6C157D058E059F0528F0861600
:100C50009706A806B906A8F78AE793E00ADB8DEDA8
:100C600092E007DBEBE9F2E0ABE5B2E01192119222
:100C7000119211921D921D921D921D9282E0E73DEC
:100C8000F807A1F744E851E0FA0164912EE331E05E
:100C9000F9018491882399F090E0880F991FFC0155
:100CA000E85FFE4FA591B4918E5D9E4FFC01C5910A
:100CB000D4918FB7F8949C91692B6C938FBFEAEC19
:100CC000F1E08491FA014491F9012491222309F47D
:100CD00065C0882309F454C090E0FC013197E231EB
:100CE000F10508F04DC08827EE58FF4F8F4F08C31D
:100CF000809180008F7707C0809180008F7D03C036
:100D000080918000877F809380003AC084B58F7780
:100D100002C084B58F7D84BD33C08091B0008F77D1
:100D200003C08091B0008F7D8093B00029C0809176
:100D300090008F7707C0809190008F7D03C08091D5
:100D40009000877F809390001BC08091A0008F77D8
:100D500007C08091A0008F7D03C08091A000877F95
:100D60008093A0000DC0809120018F7707C08091F3
:100D700020018F7D03C080912001877F8093200117
:100D8000E22FF0E0EE0FFF1FEE5DFE4FA591B49154
:100D90008FB7F8949C91492B4C938FBF2FE0C22EB4
:100DA000D12CE12CF12CC1E0D0E064E670E080E0D1
:100DB00090E01CDC53DC83E694E0E2DC182F8DE548
:100DC00094E0DEDC2090D7023090D802D101AA0F47
:100DD000BB1FAA0FBB1F9D0125563D4F4090D90256
:100DE0005090DA026090DB027090DC02F9018080A2
:100DF0009180A280B380481859086A087B08A55AD8
:100E0000BD4F8090970290909802A0909902B09068
:100E10009A024D915D916D917C911397841A950A78
:100E2000A60AB70A412F50E060E070E0408351838A
:100E300062837383082F10E020E030E00D931D9350
:100E40002D933C931397CB01BA01640D751D861D3C
:100E5000971D6093D9027093DA028093DB0290931E
:100E6000DC02800E911EA21EB31E80929702909209
:100E70009802A0929902B0929A02F1013196EF3055
:100E8000F1052CF4F093D802E093D70204C010923D
:100E9000D8021092D702A701960116D229013A0171
:100EA00020935702309358024093590250935A02AC
:100EB000C501B401A701960107D2209353023093D4
:100EC00054024093550250935602F4E64F165104D3
:100ED000610471042CF4D0935002C0934F0204C0FB
:100EE0001092500210924F022436310541055105EF
:100EF0002CF4D0935202C093510204C010925202BB
:100F00001092510284E292E0B5DB60915702709139
:100F100058028091590290915A02BDDB83E392E01E
:100F2000A9DB81E292E0A6DB86E392E0A3DB60919D
:100F30005302709154028091550290915602ABDB9E
:100F400083E392E097DB81E292E094DBD8DA2DCF65
:100F5000E89409C097FB3EF4909580957095619553
:100F60007F4F8F4F9F4F9923A9F0F92F96E9BB2709
:100F70009395F695879577956795B795F111F8CF85
:100F8000FAF4BB0F11F460FF1BC06F5F7F4F8F4FF0
:100F90009F4F16C0882311F096E911C0772321F0E6
:100FA0009EE8872F762F05C0662371F096E8862F7E
:100FB00070E060E02AF09A95660F771F881FDAF7D5
:100FC000880F9695879597F9089597F99F6780E818
:100FD00070E060E008959FEF80EC089500240A948B
:100FE0001616170618060906089500240A94121604
:100FF0001306140605060895092E0394000C11F437
:10100000882352F0BB0F40F4BF2B11F460FF04C0E3
:101010006F5F7F4F8F4F9F4F089557FD9058440F3C
:10102000551F59F05F3F71F04795880F97FB991F47
:1010300061F09F3F79F08795089512161306140604
:10104000551FF2CF4695F1DF08C016161706180691
:10105000991FF1CF86957105610508940895E8946C
:10106000BB2766277727CB0197F90895A1E21A2EAF
:10107000AA1BBB1BFD010DC0AA1FBB1FEE1FFF1F3C
:10108000A217B307E407F50720F0A21BB30BE40B8C
:10109000F50B661F771F881F991F1A9469F76095D3
:1010A0007095809590959B01AC01BD01CF0108958D
:1010B0005058BB27AA270ED09FCF90DF30F095DF86
:1010C00020F031F49F3F11F41EF485CF0EF4E0952B
:1010D000E7FB7BCFE92FA1DF80F3BA176207730725
:1010E0008407950718F071F49EF5B9CF0EF4E095DA
:1010F0000B2EBA2FA02D0B01B90190010C01CA01D2
:10110000A0011124FF27591B99F0593F50F4503E7C
:1011100068F11A16F040A22F232F342F4427585F6E
:10112000F3CF469537952795A795F0405395C9F786
:101130007EF41F16BA0B620B730B840BBAF091503E
:10114000A1F0FF0FBB1F661F771F881FC2F70EC0DD
:10115000BA0F621F731F841F48F4879577956795B0
:10116000B795F7959E3F08F0B3CF9395880F08F099
:101170009927EE0F9795879508950CD03DCF35DFD1
:1011800040F02CDF30F021F45F3F19F01ECF5111F9
:1011900067CF21CF42DF98F39923C9F35523B1F3E9
:1011A000951B550BBB27AA2762177307840738F0D6
:1011B0009F5F5F4F220F331F441FAA1FA9F333D035
:1011C0000E2E3AF0E0E830D091505040E695001CE9
:1011D000CAF729D0FE2F27D0660F771F881FBB1FA5
:1011E000261737074807AB07B0E809F0BB0B802D7F
:1011F000BF01FF2793585F4F2AF09E3F510568F0CB
:10120000E4CE2ECF5F3FECF3983EDCF386957795E6
:101210006795B795F7959F5FC9F7880F911D9695CC
:10122000879597F90895E1E0660F771F881FBB1F28
:10123000621773078407BA0720F0621B730B840BD5
:10124000BA0BEE1F88F7E0950895EFDE88F09F5700
:1012500090F0B92F9927B751A0F0D1F0660F771F02
:10126000881F991F1AF0BA95C9F712C0B13081F0E2
:10127000F6DEB1E00895F3CE672F782F8827B85FA8
:1012800039F0B93FCCF3869577956795B395D9F743
:101290003EF490958095709561957F4F8F4F9F4F4D
:1012A000089597FB072E16F4009406D077FD08D01A
:1012B0002FD007FC05D03EF4909581959F4F08955F
:1012C000709561957F4F0895052E97FB16F4009455
:1012D0000FD057FD05D0CADE07FC02D046F408C087
:1012E00050954095309521953F4F4F4F5F4F089552
:1012F00090958095709561957F4F8F4F9F4F089582
:10130000EE0FFF1F881F8BBF0790F691E02D1994F9
:10131000AA1BBB1B51E107C0AA1FBB1FA617B7071B
:1013200010F0A61BB70B881F991F5A95A9F7809537
:101330009095BC01CD01089581E090E0F89400C043
:04134000F894FFCF4F
:101344000000000018026001A8015E02D901B70183
:10135400CB01564D4450565F317C305F564D44505E
:10136400560D0A0044697374616E6365202831293F
:101374003A2000636D0044697374616E63652028CC
:0613840032293A200000AE
:00000001FF
